{
  "_format": "hh-sol-artifact-1",
  "contractName": "FraudLogger",
  "sourceName": "contracts/FraudLogger.sol",
  "abi": [
    {
      "anonymous": false,
      "inputs": [
        {
          "indexed": false,
          "internalType": "string",
          "name": "txId",
          "type": "string"
        },
        {
          "indexed": false,
          "internalType": "bool",
          "name": "isFraud",
          "type": "bool"
        }
      ],
      "name": "FraudLogged",
      "type": "event"
    },
    {
      "inputs": [
        {
          "internalType": "string",
          "name": "txId",
          "type": "string"
        },
        {
          "internalType": "bool",
          "name": "isFraud",
          "type": "bool"
        }
      ],
      "name": "logFraud",
      "outputs": [],
      "stateMutability": "nonpayable",
      "type": "function"
    }
  ],
  "bytecode": "0x6080604052348015600f57600080fd5b5061036b8061001f6000396000f3fe608060405234801561001057600080fd5b506004361061002b5760003560e01c806392e9237614610030575b600080fd5b61004a6004803603810190610045919061021b565b61004c565b005b7f905eb45165b40cf68198ebc8c1842b80e62a138f911236dc98cf7156e3128457828260405161007d929190610305565b60405180910390a15050565b6000604051905090565b600080fd5b600080fd5b600080fd5b600080fd5b6000601f19601f8301169050919050565b7f4e487b7100000000000000000000000000000000000000000000000000000000600052604160045260246000fd5b6100f0826100a7565b810181811067ffffffffffffffff8211171561010f5761010e6100b8565b5b80604052505050565b6000610122610089565b905061012e82826100e7565b919050565b600067ffffffffffffffff82111561014e5761014d6100b8565b5b610157826100a7565b9050602081019050919050565b82818337600083830152505050565b600061018661018184610133565b610118565b9050828152602081018484840111156101a2576101a16100a2565b5b6101ad848285610164565b509392505050565b600082601f8301126101ca576101c961009d565b5b81356101da848260208601610173565b91505092915050565b60008115159050919050565b6101f8816101e3565b811461020357600080fd5b50565b600081359050610215816101ef565b92915050565b6000806040838503121561023257610231610093565b5b600083013567ffffffffffffffff8111156102505761024f610098565b5b61025c858286016101b5565b925050602061026d85828601610206565b9150509250929050565b600081519050919050565b600082825260208201905092915050565b60005b838110156102b1578082015181840152602081019050610296565b60008484015250505050565b60006102c882610277565b6102d28185610282565b93506102e2818560208601610293565b6102eb816100a7565b840191505092915050565b6102ff816101e3565b82525050565b6000604082019050818103600083015261031f81856102bd565b905061032e60208301846102f6565b939250505056fea26469706673582212200c1d036ccf5b1c87dd77e82e42c3760997b0f95402a1a600b0c3a5b284ef4c3064736f6c634300081c0033",
  "linkReferences": {},
  "deployedLinkReferences": {}
}