{
  "_format": "hh-sol-artifact-1",
  "contractName": "FraudLogger",
  "sourceName": "contracts/FraudLogger.sol",
  "abi": [
    {
      "anonymous": false,
      "inputs": [
        {
          "indexed": false,
          "internalType": "string",
          "name": "txId",
          "type": "string"
        },
        {
          "indexed": false,
          "internalType": "string",
          "name": "user",
          "type": "string"
        },
        {
          "indexed": false,
          "internalType": "uint256",
          "name": "amount",
          "type": "uint256"
        },
        {
          "indexed": false,
          "internalType": "string",
          "name": "reason",
          "type": "string"
        },
        {
          "indexed": false,
          "internalType": "bool",
          "name": "isFraud",
          "type": "bool"
        }
      ],
      "name": "FraudLogged",
      "type": "event"
    },
    {
      "inputs": [
        {
          "internalType": "string",
          "name": "txId",
          "type": "string"
        },
        {
          "internalType": "string",
          "name": "user",
          "type": "string"
        },
        {
          "internalType": "uint256",
          "name": "amount",
          "type": "uint256"
        },
        {
          "internalType": "string",
          "name": "reason",
          "type": "string"
        },
        {
          "internalType": "bool",
          "name": "isFraud",
          "type": "bool"
        }
      ],
      "name": "logFraud",
      "outputs": [],
      "stateMutability": "nonpayable",
      "type": "function"
    }
  ],
  "bytecode": "0x6080604052348015600f57600080fd5b506104648061001f6000396000f3fe608060405234801561001057600080fd5b506004361061002b5760003560e01c80639a8c627b14610030575b600080fd5b61004a6004803603810190610045919061025a565b61004c565b005b7fb3dd67d193e043fff39356f116f7e9354cca10a9c3d41629579d04bad112464e85858585856040516100839594939291906103c6565b60405180910390a15050505050565b6000604051905090565b600080fd5b600080fd5b600080fd5b600080fd5b6000601f19601f8301169050919050565b7f4e487b7100000000000000000000000000000000000000000000000000000000600052604160045260246000fd5b6100f9826100b0565b810181811067ffffffffffffffff82111715610118576101176100c1565b5b80604052505050565b600061012b610092565b905061013782826100f0565b919050565b600067ffffffffffffffff821115610157576101566100c1565b5b610160826100b0565b9050602081019050919050565b82818337600083830152505050565b600061018f61018a8461013c565b610121565b9050828152602081018484840111156101ab576101aa6100ab565b5b6101b684828561016d565b509392505050565b600082601f8301126101d3576101d26100a6565b5b81356101e384826020860161017c565b91505092915050565b6000819050919050565b6101ff816101ec565b811461020a57600080fd5b50565b60008135905061021c816101f6565b92915050565b60008115159050919050565b61023781610222565b811461024257600080fd5b50565b6000813590506102548161022e565b92915050565b600080600080600060a086880312156102765761027561009c565b5b600086013567ffffffffffffffff811115610294576102936100a1565b5b6102a0888289016101be565b955050602086013567ffffffffffffffff8111156102c1576102c06100a1565b5b6102cd888289016101be565b94505060406102de8882890161020d565b935050606086013567ffffffffffffffff8111156102ff576102fe6100a1565b5b61030b888289016101be565b925050608061031c88828901610245565b9150509295509295909350565b600081519050919050565b600082825260208201905092915050565b60005b83811015610363578082015181840152602081019050610348565b60008484015250505050565b600061037a82610329565b6103848185610334565b9350610394818560208601610345565b61039d816100b0565b840191505092915050565b6103b1816101ec565b82525050565b6103c081610222565b82525050565b600060a08201905081810360008301526103e0818861036f565b905081810360208301526103f4818761036f565b905061040360408301866103a8565b8181036060830152610415818561036f565b905061042460808301846103b7565b969550505050505056fea264697066735822122090ec4d84d8707c473ff68098baf6c06af9d643850325fbed934cf301764ae90964736f6c634300081c0033",
  "linkReferences": {},
  "deployedLinkReferences": {}
}